:1000000093000000130100009301000013020000A0
:100010009302000013030000930300001304000088
:100020009304000013050000930500001306000070
:100030009306000013070000930700001308000058
:10004000930800001309000093090000130A000040
:10005000930A0000130B0000930B0000130C000028
:10006000930C0000130D0000930D0000130E000010
:10007000930E0000130F0000930F000017010400FF
:10008000130141F8170500001305C5089705020084
:10009000938545F7170602001306C6F663DCC50014
:1000A0008326050023A0D500130545009385450050
:1000B000E3C8C5FE170502001305C5F49705020045
:1000C000938545F46358B5002320050013054500CA
:1000D000E34CB5FEEF0080006F00000013077000D6
:1000E000B707011023A0E7009306A005370701100A
:1000F0008327070193F71700E39C07FE232AD70005
:100100008327070193F71700E39407FE6FF01FFFA3
:00000001FF
